:100000000C943E000C9458000C9450000C9450003A
:100010000C9450000C9450000C9450000C94500020
:100020000C9450000C9452000C9450000C9450000E
:100030000C9450000C9450000C9450000C94500000
:100040000C9450000C9450000C9450000C945000F0
:100050000C9450000C9450000C9450000C945000E0
:100060000C9450000C9450000C9450000C945000D0
:100070000C9450000C9450000C94500011241FBE9E
:10008000CFEFD8E0DEBFCDBF21E0A0E0B1E001C0FE
:100090001D92A230B207E1F70E942E030C948D034B
:1000A0000C9400008F9381E0809301018F9118954B
:1000B0008F9381E0809300018F911895282F392F1D
:1000C0002115310561F080E090E0EFECF7E0319729
:1000D000F1F700C00000019628173907B1F708951D
:1000E0000F931F93E82FF92FA22FB32F6083418323
:1000F00013830283B583A4832C9181E090E0FC01FB
:1001000002C0EE0FFF1F6A95E2F7BF0102C0880F21
:10011000991F4A95E2F7682B622B6C931F910F9100
:100120000895E82FF92F81E08083118285E290E025
:100130009383828384E290E09583848384B1836097
:1001400084B90895E82FF92FA281B3812C914081C1
:1001500081E090E0BC0102C0660F771F4A95E2F78C
:10016000262B2C93A281B3812C91318102C0880F60
:10017000991F3A95E2F7809582238C930895E82F92
:10018000F92FA281B3814C91808121E030E0B90147
:1001900002C0660F771F8A95E2F7CB018095842312
:1001A0008C93A281B3818C91918102C0220F331F65
:1001B0009A95E2F7822B8C930895CF93DF93D82FF3
:1001C000C92F0E94A2008FE097E20197F1F700C0CB
:1001D00000008D2F9C2F0E94BF008FE097E20197B7
:1001E000F1F700C00000DF91CF910895E82FF92FBB
:1001F000A281B3814C91208181E090E0BC0102C0DA
:10020000660F771F2A95E2F79B01209524232C93F4
:10021000A281B3812C91318102C0880F991F3A9538
:10022000E2F7809582238C930895CF92DF92EF922C
:10023000FF920F931F93CF93DF93182F092F262F31
:1002400088EE93E0BA010E946A03C22ED12C2115D8
:10025000B9F07B01F694E794C0E0D0E0812F902FB5
:100260000E94BF00C7010E945E00812F902F0E9454
:10027000F600C7010E945E002196CC15DD0571F7DE
:10028000DF91CF911F910F91FF90EF90DF90CF9072
:100290000895FC019B01369527953695279536954F
:1002A0002795A5ECB0E20E947E03BC017295629591
:1002B0006F7067277F70672741E050E0CF010E9491
:1002C00015010895EF92FF920F931F93CF93DF9341
:1002D000D82F192F062F88EE93E0BA010E946A03E7
:1002E0000115A9F07B01F694E794C0E08D2F912FC2
:1002F0000E94A200C7010E945E008D2F912F0E94D4
:10030000F600C7010E945E00CF5F0C13EFCFDF91B4
:10031000CF911F910F91FF90EF900895FC019B01E9
:10032000369527953695279536952795A5ECB0E215
:100330000E947E03BC01729562956F7067277F7083
:10034000672741E050E0CF010E9462010895262F07
:10035000372F2130310581F02830310581F02034EC
:10036000310581F0211581E0380779F021153440FD
:1003700079F080E090E00895862F972F089582E02D
:1003800090E0089583E090E0089584E090E008957F
:1003900085E090E00895E0EBF0E08081816A808361
:1003A000E1EBF0E080818260808308956093B30088
:1003B0004093B4000E94CB010895DC01E1EBF0E032
:1003C000908114968C91982B90830895E1EBF0E046
:1003D0008081887F8083109270000895DC011092E4
:1003E000B2001092B100E0EBF0E090819860908351
:1003F00012968C918093B30008950F931F93CF931F
:10040000DF93C82FD92F062F172F622F732F198331
:1004100008835B834A83CE010E94A7019D838C835E
:100420000115110539F00130110539F4CE010E9492
:10043000CB0103C0CE010E94EE01DF91CF911F914D
:100440000F9108956093B3004093B4000895F89419
:10045000E0E7F0E0808182608083789408950F93D4
:100460001F93CF93DF9300D000D000D0CDB7DEB77D
:10047000082F192F29833A834B835C836D837E83F6
:1004800086E0FE013196D80101900D928A95E1F740
:10049000F80117821682118610860F900F900F9028
:1004A0000F900F900F90DF91CF911F910F910895B2
:1004B0008AB1806F8AB90895CF93DF9300D000D0BE
:1004C00000D0CDB7DEB729833A834B835C836D833D
:1004D0007E830E94580240E060E0CE0101960E94B7
:1004E000D6010F900F900F900F900F900F90DF910B
:1004F000CF9108958BB180638BB90895EF92FF92ED
:100500000F931F93CF93DF9300D000D000D0CDB7CF
:10051000DEB7F82E192F29833A834B835C836D83D2
:100520007E830E9458028F2D912F0E947A024E2DB9
:10053000602FCE0101960E94D6010F900F900F9070
:100540000F900F900F90DF91CF911F910F91FF901F
:10055000EF9008958BB18F7C8BB90895EF92FF9245
:100560000F931F93CF93DF9300D000D000D0CDB76F
:10057000DEB7F82E192F29833A834B835C836D8372
:100580007E830E9458028F2D912F0E94AA024E2D29
:10059000602FCE0101960E94D6010F900F900F9010
:1005A0000F900F900F90DF91CF911F910F91FF90BF
:1005B000EF900895FF920F931F93CF93DF9300D096
:1005C00000D000D0CDB7DEB7F82E192F29833A839B
:1005D0004B835C836D837E830E9458028F2D912F05
:1005E0000E94AA02402F60E0CE0101960E94D6012F
:1005F0000F900F900F900F900F900F90DF91CF9171
:100600001F910F91FF900895FF920F931F93CF9327
:10061000DF9300D000D000D0CDB7DEB7F82E192F71
:1006200029833A834B835C836D837E830E945802C7
:100630008F2D912F0E94AA0240E0602FCE010196DB
:100640000E94D6010F900F900F900F900F900F9077
:10065000DF91CF911F910F91FF900895CDB7DEB735
:1006600066970FB6F894DEBF0FBECDBFCE014196A0
:100670000E94910028E030E040E050E061E070E04E
:10068000CE010B960E94FD01E12CF12C00E010E060
:100690002B853C854D855E856F857889CE010196D9
:1006A0000E942F028FE7E82EF12C0FE710E02B8538
:1006B0003C854D855E856F857889CE0101960E94C7
:1006C000AE0280E090E066960FB6F894DEBF0FBEF3
:1006D000CDBF0895AA1BBB1B51E107C0AA1FBB1FBA
:1006E000A617B70710F0A61BB70B881F991F5A95BE
:1006F000A9F780959095BC01CD010895A29FB00106
:10070000B39FC001A39F700D811D1124911DB29F45
:0E071000700D811D1124911D0895F894FFCFE6
:00000001FF
